{
  "contractName": "Faucet5",
  "abi": [
    {
      "anonymous": false,
      "inputs": [
        {
          "indexed": true,
          "internalType": "address",
          "name": "from",
          "type": "address"
        },
        {
          "indexed": false,
          "internalType": "uint256",
          "name": "amount",
          "type": "uint256"
        }
      ],
      "name": "Deposit",
      "type": "event"
    },
    {
      "anonymous": false,
      "inputs": [
        {
          "indexed": true,
          "internalType": "address",
          "name": "to",
          "type": "address"
        },
        {
          "indexed": false,
          "internalType": "uint256",
          "name": "amount",
          "type": "uint256"
        }
      ],
      "name": "Withdrawal",
      "type": "event"
    },
    {
      "inputs": [],
      "name": "destroy",
      "outputs": [],
      "stateMutability": "nonpayable",
      "type": "function"
    },
    {
      "stateMutability": "payable",
      "type": "receive",
      "payable": true
    },
    {
      "inputs": [
        {
          "internalType": "uint256",
          "name": "withdrawAmount",
          "type": "uint256"
        }
      ],
      "name": "withdraw",
      "outputs": [],
      "stateMutability": "nonpayable",
      "type": "function"
    }
  ],
  "bytecode": "0x608060405230600160006101000a81548173ffffffffffffffffffffffffffffffffffffffff021916908373ffffffffffffffffffffffffffffffffffffffff16021790555034801561005157600080fd5b50336000806101000a81548173ffffffffffffffffffffffffffffffffffffffff021916908373ffffffffffffffffffffffffffffffffffffffff160217905550610390806100a16000396000f3fe60806040526004361061002d5760003560e01c80632e1a7d4d1461008757806383197ef0146100c257610082565b36610082573373ffffffffffffffffffffffffffffffffffffffff167fe1fffcc4923d04b559f4d29a8bfc6cda04eb5b0d3c460751c2402c5c5cc9109c346040518082815260200191505060405180910390a2005b600080fd5b34801561009357600080fd5b506100c0600480360360208110156100aa57600080fd5b81019080803590602001909291905050506100d9565b005b3480156100ce57600080fd5b506100d7610218565b005b67016345785d8a00008111156100ee57600080fd5b80600160009054906101000a900473ffffffffffffffffffffffffffffffffffffffff1673ffffffffffffffffffffffffffffffffffffffff16311015610180576040517f08c379a00000000000000000000000000000000000000000000000000000000081526004018080602001828103825260358152602001806103266035913960400191505060405180910390fd5b3373ffffffffffffffffffffffffffffffffffffffff166108fc829081150290604051600060405180830381858888f193505050501580156101c6573d6000803e3d6000fd5b503373ffffffffffffffffffffffffffffffffffffffff167f7fcf532c15f0a6db0bd6d0e038bea71d30d808c7d98cb3bf7268a95bf5081b65826040518082815260200191505060405180910390a250565b6000809054906101000a900473ffffffffffffffffffffffffffffffffffffffff1673ffffffffffffffffffffffffffffffffffffffff163373ffffffffffffffffffffffffffffffffffffffff16146102bd576040517f08c379a000000000000000000000000000000000000000000000000000000000815260040180806020018281038252602e8152602001806102f8602e913960400191505060405180910390fd5b6000809054906101000a900473ffffffffffffffffffffffffffffffffffffffff1673ffffffffffffffffffffffffffffffffffffffff16fffe4f6e6c792074686520636f6e7472616374206f776e65722063616e2063616c6c20746869732066756e6374696f6e496e73756666696369656e742062616c616e636520696e2066617563657420666f72207769746864726177616c2072657175657374a2646970667358221220a3a96fd1ad53a7999d36a9b4c55ac3a333f05e8c440cdca0798a5e8cdeff912864736f6c634300060a0033",
  "immutableReferences": {},
  "source": "// SPDX-License-Identifier: MIT\npragma solidity ^0.6.0;\n\nimport {Mortal5} from \"./Mortal5.sol\";\n\n/**\n * @title Mastering Ethereum Chapter 6, Faucet contract v5-8.\n * @author Victor Navascues.\n * @notice Faucet4 applying contract inheritance, error handling, events, and\n * NatSpec documentation.\n * @dev Inherits from Mortal5 and implements withdrawal.\n */\ncontract Faucet5 is Mortal5 {\n    /**\n     * @notice Accept any incoming amount.\n     * @dev It emits the Diposit event.\n     */\n    receive() external payable {\n        emit Deposit(msg.sender, msg.value);\n    }\n\n    /**\n     * @notice Give out ether to anyone who asks.\n     * @dev Limit the withdraw amount to 0.1Ξ. It emits the Withdrawal event.\n     * @param withdrawAmount the requested ether amount.\n     */\n    function withdraw(uint256 withdrawAmount) public {\n        require(withdrawAmount <= 0.1 ether);\n        // NB: This check increases gas consumption slightly.\n        require(\n            myAddress.balance >= withdrawAmount,\n            \"Insufficient balance in faucet for withdrawal request\"\n        );\n        msg.sender.transfer(withdrawAmount);\n        emit Withdrawal(msg.sender, withdrawAmount);\n    }\n}\n",
  "sourcePath": "/home/victor/Projects/ethereum/solidity_playground/mastering_ethereum/truffle/Faucet5/contracts/Faucet5.sol",
  "compiler": {
    "name": "solc",
    "version": "0.6.10+commit.00c0fcaf.Emscripten.clang"
  },
  "schemaVersion": "3.2.0",
  "updatedAt": "2020-06-29T18:34:07.745Z",
  "networkType": "ethereum",
  "devdoc": {
    "author": "Victor Navascues.",
    "details": "Inherits from Mortal5 and implements withdrawal.",
    "methods": {
      "destroy()": {
        "details": "In case `owner` was not payable, call `payable(owner)`."
      },
      "withdraw(uint256)": {
        "details": "Limit the withdraw amount to 0.1Ξ. It emits the Withdrawal event.",
        "params": {
          "withdrawAmount": "the requested ether amount."
        }
      }
    },
    "title": "Mastering Ethereum Chapter 6, Faucet contract v5-8."
  },
  "userdoc": {
    "methods": {
      "withdraw(uint256)": {
        "notice": "Give out ether to anyone who asks."
      }
    },
    "notice": "Faucet4 applying contract inheritance, error handling, events, and NatSpec documentation."
  }
}