{
  "contractName": "Caller",
  "abi": [
    {
      "anonymous": false,
      "inputs": [
        {
          "indexed": false,
          "internalType": "address",
          "name": "sender",
          "type": "address"
        },
        {
          "indexed": false,
          "internalType": "bool",
          "name": "success",
          "type": "bool"
        },
        {
          "indexed": false,
          "internalType": "bytes",
          "name": "response",
          "type": "bytes"
        }
      ],
      "name": "LogLowLevelCalls",
      "type": "event"
    },
    {
      "inputs": [
        {
          "internalType": "contract Called",
          "name": "_called",
          "type": "address"
        }
      ],
      "name": "makeCalls",
      "outputs": [],
      "stateMutability": "nonpayable",
      "type": "function"
    }
  ],
  "bytecode": "0x608060405234801561001057600080fd5b50610536806100206000396000f3fe608060405234801561001057600080fd5b506004361061002b5760003560e01c8063444c35df14610030575b600080fd5b6100726004803603602081101561004657600080fd5b81019080803573ffffffffffffffffffffffffffffffffffffffff169060200190929190505050610074565b005b8073ffffffffffffffffffffffffffffffffffffffff16630d8ea1806040518163ffffffff1660e01b8152600401600060405180830381600087803b1580156100bc57600080fd5b505af11580156100d0573d6000803e3d6000fd5b5050505073__CalledLibrary_________________________630d8ea1806040518163ffffffff1660e01b815260040160006040518083038186803b15801561011857600080fd5b505af415801561012c573d6000803e3d6000fd5b5050505060006060806040516024016040516020818303038152906040527f0d8ea180000000000000000000000000000000000000000000000000000000007bffffffffffffffffffffffffffffffffffffffffffffffffffffffff19166020820180517bffffffffffffffffffffffffffffffffffffffffffffffffffffffff838183161783525050505090508373ffffffffffffffffffffffffffffffffffffffff16816040518082805190602001908083835b6020831061020557805182526020820191506020810190506020830392506101e2565b6001836020036101000a0380198251168184511680821785525050505050509050019150506000604051808303816000865af19150503d8060008114610267576040519150601f19603f3d011682016040523d82523d6000602084013e61026c565b606091505b5080935081945050508261027f57600080fd5b7fd083b99fafcd44fcff078c25e064852e34a3848ee80542d802103f64f085f812338484604051808473ffffffffffffffffffffffffffffffffffffffff1673ffffffffffffffffffffffffffffffffffffffff1681526020018315151515815260200180602001828103825283818151815260200191508051906020019080838360005b8381101561031f578082015181840152602081019050610304565b50505050905090810190601f16801561034c5780820380516001836020036101000a031916815260200191505b5094505050505060405180910390a18373ffffffffffffffffffffffffffffffffffffffff16816040518082805190602001908083835b602083106103a65780518252602082019150602081019050602083039250610383565b6001836020036101000a038019825116818451168082178552505050505050905001915050600060405180830381855af49150503d8060008114610406576040519150601f19603f3d011682016040523d82523d6000602084013e61040b565b606091505b5080935081945050508261041e57600080fd5b7fd083b99fafcd44fcff078c25e064852e34a3848ee80542d802103f64f085f812338484604051808473ffffffffffffffffffffffffffffffffffffffff1673ffffffffffffffffffffffffffffffffffffffff1681526020018315151515815260200180602001828103825283818151815260200191508051906020019080838360005b838110156104be5780820151818401526020810190506104a3565b50505050905090810190601f1680156104eb5780820380516001836020036101000a031916815260200191505b5094505050505060405180910390a15050505056fea26469706673582212207b3d25dbe806a091f51b17c429023f5fb846ba0bbd37420d8adfb353cc5a54ab64736f6c634300060a0033",
  "immutableReferences": {},
  "source": "// SPDX-License-Identifier: MIT\npragma solidity ^0.6.0;\n\nimport {Called} from \"./Called.sol\";\nimport {CalledLibrary} from \"./CalledLibrary.sol\";\n\ncontract Caller {\n    event LogLowLevelCalls(address sender, bool success, bytes response);\n\n    function makeCalls(Called _called) public {\n        // Calling Called and CalledLibrary directly\n        _called.calledFunction();\n        CalledLibrary.calledFunction();\n\n        // Low-level calls using the address object for Called\n        // NB: prior Solidity 0.5.0\n        // require(address(_called).call(bytes4(keccak256(\"calledFunction()\"))));\n        // require(address(_called).delegatecall(bytes4(keccak256(\"calledFunction()\"))));\n\n        bool success;\n        bytes memory response;\n\n        // bytes memory functionSig = abi.encodePacked(\n        //     bytes4(keccak256(\"calledFunction()\"))\n        // );\n        bytes memory functionSig = abi.encodeWithSignature(\"calledFunction()\");\n\n        // NB: Solidity >= 0.5.0, capturing `call` and `delegatecall` returns\n        // in variables\n        (success, response) = address(_called).call(functionSig);\n        require(success);\n        emit LogLowLevelCalls(msg.sender, success, response);\n\n        (success, response) = address(_called).delegatecall(functionSig);\n        require(success);\n        emit LogLowLevelCalls(msg.sender, success, response);\n    }\n}\n",
  "sourcePath": "/home/victor/Projects/ethereum/solidity_playground/mastering_ethereum/truffle/CallExamples/contracts/Caller.sol",
  "compiler": {
    "name": "solc",
    "version": "0.6.10+commit.00c0fcaf.Emscripten.clang"
  },
  "schemaVersion": "3.2.0",
  "updatedAt": "2020-06-29T18:16:37.038Z",
  "networkType": "ethereum",
  "devdoc": {
    "methods": {}
  },
  "userdoc": {
    "methods": {}
  }
}