{
  "contractName": "Called",
  "abi": [
    {
      "anonymous": false,
      "inputs": [
        {
          "indexed": false,
          "internalType": "address",
          "name": "sender",
          "type": "address"
        },
        {
          "indexed": false,
          "internalType": "address",
          "name": "origin",
          "type": "address"
        },
        {
          "indexed": false,
          "internalType": "address",
          "name": "from",
          "type": "address"
        }
      ],
      "name": "CallEvent",
      "type": "event"
    },
    {
      "inputs": [],
      "name": "calledFunction",
      "outputs": [],
      "stateMutability": "nonpayable",
      "type": "function"
    }
  ],
  "bytecode": "0x6080604052348015600f57600080fd5b5061013d8061001f6000396000f3fe608060405234801561001057600080fd5b506004361061002b5760003560e01c80630d8ea18014610030575b600080fd5b61003861003a565b005b7f7834111f8e3537c768ec5f949da739b9b0164026cbe281baba06a330ced20616333230604051808473ffffffffffffffffffffffffffffffffffffffff1673ffffffffffffffffffffffffffffffffffffffff1681526020018373ffffffffffffffffffffffffffffffffffffffff1673ffffffffffffffffffffffffffffffffffffffff1681526020018273ffffffffffffffffffffffffffffffffffffffff1673ffffffffffffffffffffffffffffffffffffffff168152602001935050505060405180910390a156fea264697066735822122004c67ffa197d0393028240d34086c853cc33f9903f58d1af335fa5adceb4f18b64736f6c634300060a0033",
  "immutableReferences": {},
  "source": "// SPDX-License-Identifier: MIT\npragma solidity ^0.6.0;\n\ncontract Called {\n    event CallEvent(address sender, address origin, address from);\n\n    function calledFunction() public {\n        emit CallEvent(msg.sender, tx.origin, address(this));\n    }\n}\n",
  "sourcePath": "/home/victor/Projects/ethereum/solidity_playground/mastering_ethereum/truffle/CallExamples/contracts/Called.sol",
  "compiler": {
    "name": "solc",
    "version": "0.6.10+commit.00c0fcaf.Emscripten.clang"
  },
  "schemaVersion": "3.2.0",
  "updatedAt": "2020-06-25T16:15:49.598Z",
  "networkType": "ethereum",
  "devdoc": {
    "methods": {}
  },
  "userdoc": {
    "methods": {}
  }
}