{
  "contractName": "EtherStoreFaulty",
  "abi": [
    {
      "inputs": [
        {
          "internalType": "address",
          "name": "",
          "type": "address"
        }
      ],
      "name": "balances",
      "outputs": [
        {
          "internalType": "uint256",
          "name": "",
          "type": "uint256"
        }
      ],
      "stateMutability": "view",
      "type": "function",
      "constant": true
    },
    {
      "inputs": [
        {
          "internalType": "address",
          "name": "",
          "type": "address"
        }
      ],
      "name": "lastWithdrawTime",
      "outputs": [
        {
          "internalType": "uint256",
          "name": "",
          "type": "uint256"
        }
      ],
      "stateMutability": "view",
      "type": "function",
      "constant": true
    },
    {
      "inputs": [],
      "name": "withdrawalLimit",
      "outputs": [
        {
          "internalType": "uint256",
          "name": "",
          "type": "uint256"
        }
      ],
      "stateMutability": "view",
      "type": "function",
      "constant": true
    },
    {
      "inputs": [],
      "name": "depositFunds",
      "outputs": [],
      "stateMutability": "payable",
      "type": "function",
      "payable": true
    },
    {
      "inputs": [
        {
          "internalType": "uint256",
          "name": "_weiToWithdraw",
          "type": "uint256"
        }
      ],
      "name": "withdrawFunds",
      "outputs": [],
      "stateMutability": "nonpayable",
      "type": "function"
    }
  ],
  "bytecode": "0x6080604052670de0b6b3a764000060005534801561001c57600080fd5b506103f88061002c6000396000f3fe60806040526004361061004a5760003560e01c80631031ec311461004f578063155dd5ee146100b457806327e235e3146100ef5780637ddfe78d14610154578063e2c41dbc1461017f575b600080fd5b34801561005b57600080fd5b5061009e6004803603602081101561007257600080fd5b81019080803573ffffffffffffffffffffffffffffffffffffffff169060200190929190505050610189565b6040518082815260200191505060405180910390f35b3480156100c057600080fd5b506100ed600480360360208110156100d757600080fd5b81019080803590602001909291905050506101a1565b005b3480156100fb57600080fd5b5061013e6004803603602081101561011257600080fd5b81019080803573ffffffffffffffffffffffffffffffffffffffff169060200190929190505050610355565b6040518082815260200191505060405180910390f35b34801561016057600080fd5b5061016961036d565b6040518082815260200191505060405180910390f35b610187610373565b005b60016020528060005260406000206000915090505481565b80600260003373ffffffffffffffffffffffffffffffffffffffff1673ffffffffffffffffffffffffffffffffffffffff1681526020019081526020016000205410156101ed57600080fd5b6000548111156101fc57600080fd5b62093a80600160003373ffffffffffffffffffffffffffffffffffffffff1673ffffffffffffffffffffffffffffffffffffffff168152602001908152602001600020540142101561024d57600080fd5b60003373ffffffffffffffffffffffffffffffffffffffff168260405180600001905060006040518083038185875af1925050503d80600081146102ad576040519150601f19603f3d011682016040523d82523d6000602084013e6102b2565b606091505b50509050806102c057600080fd5b81600260003373ffffffffffffffffffffffffffffffffffffffff1673ffffffffffffffffffffffffffffffffffffffff1681526020019081526020016000206000828254039250508190555042600160003373ffffffffffffffffffffffffffffffffffffffff1673ffffffffffffffffffffffffffffffffffffffff168152602001908152602001600020819055505050565b60026020528060005260406000206000915090505481565b60005481565b34600260003373ffffffffffffffffffffffffffffffffffffffff1673ffffffffffffffffffffffffffffffffffffffff1681526020019081526020016000206000828254019250508190555056fea26469706673582212207448973c942e7fe7a176874a8d85601b7323a9a8f4d3a4a2626ab89d6a7f022064736f6c634300060a0033",
  "immutableReferences": {},
  "source": "// SPDX-License-Identifier: MIT\npragma solidity ^0.6.0;\n\n/**\n * @title Mastering Ethereum Chapter 9, EtherStore faulty contract.\n * @author Victor Navascues.\n * @notice EtherStoreFaulty contract enables reentrancy attack.\n * @dev Function `withdrawFunds()` has an exploit via reentrancy attack by do\n * not applying the \"checks-effects-interaction\" pattern.\n */\ncontract EtherStoreFaulty {\n    uint256 public withdrawalLimit = 1 ether;\n    mapping(address => uint256) public lastWithdrawTime;\n    mapping(address => uint256) public balances;\n\n    function depositFunds() external payable {\n        balances[msg.sender] += msg.value;\n    }\n\n    /**\n     * @notice Give out ether to anyone that previously deposited funds via\n     * `depositFunds`, and does not withdrawn funds (via this function) at\n     * least for a week.\n     * @dev List of exploits, vulnerabilities and bad practices below:\n     *  - Reentrancy attack: balances and timestamp updated are\n     *  updated after the externall call. No checks-effects-interaction\n     *  pattern.\n     *\n     *  - Transferring ether via `call()`: it is an unnecessary and risky\n     *  low-level call for transferring funds (it can be exploited by a\n     *  malicious fallback function of the contract caller). The `call()`:\n     *    - Has not limit on the gas available.\n     *    - It also consumes a large amount of gas.\n     *\n     *  By using `transfer()` the fallback function can only rely on 2300 gas\n     *  being available. Consensys has some discrepancies about using\n     *  `send()/transfer()` rather than `call()`, because of the gas cost\n     *  changes (more info below):\n     *    - https://diligence.consensys.net/blog/2019/09/stop-using-soliditys-transfer-now/\n     *    - https://ethereum.stackexchange.com/questions/19341/address-send-vs-address-transfer-best-practice-usage\n     *\n     *  - `now` (alias of `block.timestamp`): it is not a reliable source of\n     *  time-based decisions for the business logic because it can be\n     *  influenced by the miners to some degree (it seems `now` will be\n     *  deprecated by `block.timestamp` soon). If using `block.timestamp`\n     *  consider checking the current block timestamp must be strictly larger\n     *  than the timestamp of the last block (more info below):\n     *      - https://solidity.readthedocs.io/en/v0.5.3/units-and-global-variables.html#block-and-transaction-properties\n     *\n     * @param _weiToWithdraw the requested ether amount.\n     */\n    function withdrawFunds(uint256 _weiToWithdraw) public {\n        require(balances[msg.sender] >= _weiToWithdraw);\n        require(_weiToWithdraw <= withdrawalLimit);\n        require(now >= lastWithdrawTime[msg.sender] + 1 weeks);\n\n        // NB: attacking vector\n        (bool success, ) = msg.sender.call{value: _weiToWithdraw}(\"\");\n        require(success);\n\n        balances[msg.sender] -= _weiToWithdraw;\n        lastWithdrawTime[msg.sender] = now;\n    }\n}\n",
  "sourcePath": "/home/victor/Projects/ethereum/solidity_playground/mastering_ethereum/truffle/SCSecurity/contracts/reentrancy_attack/EtherStoreFaulty.sol",
  "compiler": {
    "name": "solc",
    "version": "0.6.10+commit.00c0fcaf.Emscripten.clang"
  },
  "schemaVersion": "3.2.1",
  "updatedAt": "2020-07-08T15:15:12.299Z",
  "networkType": "ethereum",
  "devdoc": {
    "author": "Victor Navascues.",
    "details": "Function `withdrawFunds()` has an exploit via reentrancy attack by do not applying the \"checks-effects-interaction\" pattern.",
    "methods": {
      "withdrawFunds(uint256)": {
        "details": "List of exploits, vulnerabilities and bad practices below:  - Reentrancy attack: balances and timestamp updated are  updated after the externall call. No checks-effects-interaction  pattern.  - Transferring ether via `call()`: it is an unnecessary and risky  low-level call for transferring funds (it can be exploited by a  malicious fallback function of the contract caller). The `call()`:    - Has not limit on the gas available.    - It also consumes a large amount of gas.  By using `transfer()` the fallback function can only rely on 2300 gas  being available. Consensys has some discrepancies about using  `send()/transfer()` rather than `call()`, because of the gas cost  changes (more info below):    - https://diligence.consensys.net/blog/2019/09/stop-using-soliditys-transfer-now/    - https://ethereum.stackexchange.com/questions/19341/address-send-vs-address-transfer-best-practice-usage  - `now` (alias of `block.timestamp`): it is not a reliable source of  time-based decisions for the business logic because it can be  influenced by the miners to some degree (it seems `now` will be  deprecated by `block.timestamp` soon). If using `block.timestamp`  consider checking the current block timestamp must be strictly larger  than the timestamp of the last block (more info below):      - https://solidity.readthedocs.io/en/v0.5.3/units-and-global-variables.html#block-and-transaction-properties",
        "params": {
          "_weiToWithdraw": "the requested ether amount."
        }
      }
    },
    "title": "Mastering Ethereum Chapter 9, EtherStore faulty contract."
  },
  "userdoc": {
    "methods": {
      "withdrawFunds(uint256)": {
        "notice": "Give out ether to anyone that previously deposited funds via `depositFunds`, and does not withdrawn funds (via this function) at least for a week."
      }
    },
    "notice": "EtherStoreFaulty contract enables reentrancy attack."
  }
}