{
  "contractName": "EtherStoreFixed",
  "abi": [
    {
      "anonymous": false,
      "inputs": [
        {
          "indexed": false,
          "internalType": "address",
          "name": "_sender",
          "type": "address"
        },
        {
          "indexed": false,
          "internalType": "uint256",
          "name": "_value",
          "type": "uint256"
        }
      ],
      "name": "LogDepositReceived",
      "type": "event"
    },
    {
      "anonymous": false,
      "inputs": [
        {
          "indexed": false,
          "internalType": "address",
          "name": "_sender",
          "type": "address"
        },
        {
          "indexed": false,
          "internalType": "uint256",
          "name": "_value",
          "type": "uint256"
        }
      ],
      "name": "LogWithdrawalProcessed",
      "type": "event"
    },
    {
      "anonymous": false,
      "inputs": [
        {
          "indexed": true,
          "internalType": "address",
          "name": "previousOwner",
          "type": "address"
        },
        {
          "indexed": true,
          "internalType": "address",
          "name": "newOwner",
          "type": "address"
        }
      ],
      "name": "OwnershipTransferred",
      "type": "event"
    },
    {
      "inputs": [
        {
          "internalType": "address",
          "name": "",
          "type": "address"
        }
      ],
      "name": "balances",
      "outputs": [
        {
          "internalType": "uint256",
          "name": "",
          "type": "uint256"
        }
      ],
      "stateMutability": "view",
      "type": "function",
      "constant": true
    },
    {
      "inputs": [
        {
          "internalType": "address",
          "name": "",
          "type": "address"
        }
      ],
      "name": "lastWithdrawTime",
      "outputs": [
        {
          "internalType": "uint256",
          "name": "",
          "type": "uint256"
        }
      ],
      "stateMutability": "view",
      "type": "function",
      "constant": true
    },
    {
      "inputs": [],
      "name": "owner",
      "outputs": [
        {
          "internalType": "address",
          "name": "",
          "type": "address"
        }
      ],
      "stateMutability": "view",
      "type": "function",
      "constant": true
    },
    {
      "inputs": [],
      "name": "renounceOwnership",
      "outputs": [],
      "stateMutability": "nonpayable",
      "type": "function"
    },
    {
      "inputs": [
        {
          "internalType": "address",
          "name": "newOwner",
          "type": "address"
        }
      ],
      "name": "transferOwnership",
      "outputs": [],
      "stateMutability": "nonpayable",
      "type": "function"
    },
    {
      "inputs": [],
      "name": "withdrawalLimit",
      "outputs": [
        {
          "internalType": "uint256",
          "name": "",
          "type": "uint256"
        }
      ],
      "stateMutability": "view",
      "type": "function",
      "constant": true
    },
    {
      "inputs": [],
      "name": "depositFunds",
      "outputs": [],
      "stateMutability": "payable",
      "type": "function",
      "payable": true
    },
    {
      "inputs": [
        {
          "internalType": "uint256",
          "name": "_weiToWithdraw",
          "type": "uint256"
        }
      ],
      "name": "withdrawFunds",
      "outputs": [],
      "stateMutability": "nonpayable",
      "type": "function"
    }
  ],
  "bytecode": "0x608060405260008060146101000a81548160ff021916908315150217905550670de0b6b3a764000060015534801561003657600080fd5b5060006100476100ea60201b60201c565b9050806000806101000a81548173ffffffffffffffffffffffffffffffffffffffff021916908373ffffffffffffffffffffffffffffffffffffffff1602179055508073ffffffffffffffffffffffffffffffffffffffff16600073ffffffffffffffffffffffffffffffffffffffff167f8be0079c531659141344cd1fd0a4f28419497f9722a3daafe3b4186f6b6457e060405160405180910390a3506100f2565b600033905090565b610c15806101016000396000f3fe60806040526004361061007b5760003560e01c80637ddfe78d1161004e5780637ddfe78d1461019c5780638da5cb5b146101c7578063e2c41dbc1461021e578063f2fde38b146102285761007b565b80631031ec3114610080578063155dd5ee146100e557806327e235e314610120578063715018a614610185575b600080fd5b34801561008c57600080fd5b506100cf600480360360208110156100a357600080fd5b81019080803573ffffffffffffffffffffffffffffffffffffffff169060200190929190505050610279565b6040518082815260200191505060405180910390f35b3480156100f157600080fd5b5061011e6004803603602081101561010857600080fd5b8101908080359060200190929190505050610291565b005b34801561012c57600080fd5b5061016f6004803603602081101561014357600080fd5b81019080803573ffffffffffffffffffffffffffffffffffffffff1690602001909291905050506106ef565b6040518082815260200191505060405180910390f35b34801561019157600080fd5b5061019a610707565b005b3480156101a857600080fd5b506101b161088f565b6040518082815260200191505060405180910390f35b3480156101d357600080fd5b506101dc610895565b604051808273ffffffffffffffffffffffffffffffffffffffff1673ffffffffffffffffffffffffffffffffffffffff16815260200191505060405180910390f35b6102266108be565b005b34801561023457600080fd5b506102776004803603602081101561024b57600080fd5b81019080803573ffffffffffffffffffffffffffffffffffffffff169060200190929190505050610978565b005b60026020528060005260406000206000915090505481565b600060149054906101000a900460ff1615610314576040517f08c379a000000000000000000000000000000000000000000000000000000000815260040180806020018281038252600f8152602001807f5265656e7472616e742063616c6c2e000000000000000000000000000000000081525060200191505060405180910390fd5b6001600060146101000a81548160ff02191690831515021790555080600360003373ffffffffffffffffffffffffffffffffffffffff1673ffffffffffffffffffffffffffffffffffffffff1681526020019081526020016000205410156103e4576040517f08c379a00000000000000000000000000000000000000000000000000000000081526004018080602001828103825260158152602001807f496e73756666696369656e742062616c616e63652e000000000000000000000081525060200191505060405180910390fd5b60015481111561045c576040517f08c379a000000000000000000000000000000000000000000000000000000000815260040180806020018281038252601a8152602001807f5769746864726177616c206c696d69742065786365656465642e00000000000081525060200191505060405180910390fd5b62093a80600260003373ffffffffffffffffffffffffffffffffffffffff1673ffffffffffffffffffffffffffffffffffffffff16815260200190815260200160002054014210156104f9576040517f08c379a000000000000000000000000000000000000000000000000000000000815260040180806020018281038252602c815260200180610b8e602c913960400191505060405180910390fd5b80600360003373ffffffffffffffffffffffffffffffffffffffff1673ffffffffffffffffffffffffffffffffffffffff1681526020019081526020016000206000828254039250508190555042600260003373ffffffffffffffffffffffffffffffffffffffff1673ffffffffffffffffffffffffffffffffffffffff1681526020019081526020016000208190555060003373ffffffffffffffffffffffffffffffffffffffff168260405180600001905060006040518083038185875af1925050503d80600081146105ea576040519150601f19603f3d011682016040523d82523d6000602084013e6105ef565b606091505b5050905080610666576040517f08c379a00000000000000000000000000000000000000000000000000000000081526004018080602001828103825260138152602001807f4661696c6564207472616e73616374696f6e2e0000000000000000000000000081525060200191505060405180910390fd5b7feaa5472b3c68d6ec980d378f57adb961189717a6c859410ef758d142785e294d3383604051808373ffffffffffffffffffffffffffffffffffffffff1673ffffffffffffffffffffffffffffffffffffffff1681526020018281526020019250505060405180910390a15060008060146101000a81548160ff02191690831515021790555050565b60036020528060005260406000206000915090505481565b61070f610b85565b73ffffffffffffffffffffffffffffffffffffffff166000809054906101000a900473ffffffffffffffffffffffffffffffffffffffff1673ffffffffffffffffffffffffffffffffffffffff16146107d0576040517f08c379a00000000000000000000000000000000000000000000000000000000081526004018080602001828103825260208152602001807f4f776e61626c653a2063616c6c6572206973206e6f7420746865206f776e657281525060200191505060405180910390fd5b600073ffffffffffffffffffffffffffffffffffffffff166000809054906101000a900473ffffffffffffffffffffffffffffffffffffffff1673ffffffffffffffffffffffffffffffffffffffff167f8be0079c531659141344cd1fd0a4f28419497f9722a3daafe3b4186f6b6457e060405160405180910390a360008060006101000a81548173ffffffffffffffffffffffffffffffffffffffff021916908373ffffffffffffffffffffffffffffffffffffffff160217905550565b60015481565b60008060009054906101000a900473ffffffffffffffffffffffffffffffffffffffff16905090565b34600360003373ffffffffffffffffffffffffffffffffffffffff1673ffffffffffffffffffffffffffffffffffffffff168152602001908152602001600020600082825401925050819055507f3916187166447a01764df803fb1147a37c55a4ca1c7271a7a75c0ab1079b2d953334604051808373ffffffffffffffffffffffffffffffffffffffff1673ffffffffffffffffffffffffffffffffffffffff1681526020018281526020019250505060405180910390a1565b610980610b85565b73ffffffffffffffffffffffffffffffffffffffff166000809054906101000a900473ffffffffffffffffffffffffffffffffffffffff1673ffffffffffffffffffffffffffffffffffffffff1614610a41576040517f08c379a00000000000000000000000000000000000000000000000000000000081526004018080602001828103825260208152602001807f4f776e61626c653a2063616c6c6572206973206e6f7420746865206f776e657281525060200191505060405180910390fd5b600073ffffffffffffffffffffffffffffffffffffffff168173ffffffffffffffffffffffffffffffffffffffff161415610ac7576040517f08c379a0000000000000000000000000000000000000000000000000000000008152600401808060200182810382526026815260200180610bba6026913960400191505060405180910390fd5b8073ffffffffffffffffffffffffffffffffffffffff166000809054906101000a900473ffffffffffffffffffffffffffffffffffffffff1673ffffffffffffffffffffffffffffffffffffffff167f8be0079c531659141344cd1fd0a4f28419497f9722a3daafe3b4186f6b6457e060405160405180910390a3806000806101000a81548173ffffffffffffffffffffffffffffffffffffffff021916908373ffffffffffffffffffffffffffffffffffffffff16021790555050565b60003390509056fe41207765656b20686173206e6f74207061737365642073696e6365206c617374207769746864726177616c2e4f776e61626c653a206e6577206f776e657220697320746865207a65726f2061646472657373a26469706673582212200510715ae8ced7a75d638683009941c285042cffa63de14e1fb68fdcb0a9485b64736f6c634300060a0033",
  "immutableReferences": {},
  "source": "// SPDX-License-Identifier: MIT\npragma solidity ^0.6.0;\n\nimport \"@openzeppelin/contracts/access/Ownable.sol\";\n\n/**\n * @title Mastering Ethereum Chapter 9, EtherStore fixed contract.\n * @author Victor Navascues.\n * @notice EtherStoreFixed contract prevents reentrancy attacks.\n * @dev Multiple security issues in `withdrawFunds()`  have been addressed.\n * This contract differs from the book implementation in:\n *  - It inherits from oppenzeppelin access `Ownable` contract, implementing\n *  an access modifier in the `collectEther()` function. Just for learning\n *  purposes.\n *\n *  - It implements the mutex logic follwing the Solidity official\n *  documentation example (via modifier, below):\n *    - https://solidity.readthedocs.io/en/v0.6.0/contracts.html?highlight=constructor#function-modifiers\n *\n *  - It implements some Consensys' best practices (link below):\n *    - https://consensys.github.io/smart-contract-best-practices/recommendations\n *\n *    - Contract layout (type declarations, state variables, events, and\n *    functions).\n *    - Mark untrusted contracts. NA.\n *    - Function arguments with leading underscore.\n *    - Log names starting with `Log`.\n *    - Don't use `transfer()` or `send()`.\n *    - Handle errors in external calls.\n *    - Use modifiers only for checks.\n *    - Improved `fallback()` (e.g. simple, log an event, and check data\n *    length). NA.\n *    - Use events to monitor contract activity.\n *    - Lock pragmas to specific compiler version. NA.\n *\n *  - Added the optional message in `require()`.\n *\n *  NB: Ideally it could inherit from openzeppelin token `TokenTimelock`\n *  contract, but it this beyond the exercise of fixing the reentrancy attack.\n */\ncontract EtherStoreFixed is Ownable {\n    bool private locked = false;\n    uint256 public withdrawalLimit = 1 ether;\n    mapping(address => uint256) public lastWithdrawTime;\n    mapping(address => uint256) public balances;\n\n    event LogDepositReceived(address _sender, uint256 _value);\n    event LogWithdrawalProcessed(address _sender, uint256 _value);\n    // event LogFallbackDepositReceived(address _sender, uint256 _value);\n\n    /**\n     * @dev Access control modifier that checks the estate of `locked` before\n     * executing the function. It protects the function from reentrant calls.\n     */\n    modifier noReentrancyMutex {\n        require(!locked, \"Reentrant call.\");\n        locked = true;\n        _;\n        locked = false;\n    }\n\n    function depositFunds() external payable {\n        balances[msg.sender] += msg.value;\n        emit LogDepositReceived(msg.sender, msg.value);\n    }\n\n    /**\n     * @notice Give out ether to anyone that previously deposited funds via\n     * `depositFunds`, and does not withdrawn funds (via this function) at\n     * least for a week.\n     * @dev List of exploits, vulnerabilities and bad practices addressed:\n     *  - Reentrancy attack: addressed via \"checks-effects-interaction\" pattern\n     *  and `noReentrancyMutex` modifier.\n     *  - Transferring ether via `call()`: `call()` is kept but it is addressed\n     *  via \"checks-effects-interaction\" pattern, and the `noReentrancyMutex`\n     *  modifier.\n     * @param _weiToWithdraw the requested ether amount.\n     */\n    function withdrawFunds(uint256 _weiToWithdraw) public noReentrancyMutex {\n        require(\n            balances[msg.sender] >= _weiToWithdraw,\n            \"Insufficient balance.\"\n        );\n        require(\n            _weiToWithdraw <= withdrawalLimit,\n            \"Withdrawal limit exceeded.\"\n        );\n        require(\n            now >= lastWithdrawTime[msg.sender] + 1 weeks,\n            \"A week has not passed since last withdrawal.\"\n        );\n\n        balances[msg.sender] -= _weiToWithdraw;\n        lastWithdrawTime[msg.sender] = now;\n\n        // NB: Don't use `transfer()` or `send()`. Pay attention to reentrancy.\n        // msg.sender.transfer(_weiToWithdraw);\n        (bool success, ) = msg.sender.call{value: _weiToWithdraw}(\"\");\n\n        require(success, \"Failed transaction.\");\n        emit LogWithdrawalProcessed(msg.sender, _weiToWithdraw);\n    }\n\n    // NB: not applicable\n    // fallback() external payable {\n    //     require(msg.data.length == 0);\n    //     emit LogFallbackDepositReceived(msg.sender, msg.value);\n    // }\n}\n",
  "sourcePath": "/home/victor/Projects/ethereum/solidity_playground/mastering_ethereum/truffle/SCSecurity/contracts/reentrancy_attack/EtherStoreFixed.sol",
  "compiler": {
    "name": "solc",
    "version": "0.6.10+commit.00c0fcaf.Emscripten.clang"
  },
  "schemaVersion": "3.2.1",
  "updatedAt": "2020-07-08T15:15:12.660Z",
  "networkType": "ethereum",
  "devdoc": {
    "author": "Victor Navascues.",
    "details": "Multiple security issues in `withdrawFunds()`  have been addressed. This contract differs from the book implementation in:  - It inherits from oppenzeppelin access `Ownable` contract, implementing  an access modifier in the `collectEther()` function. Just for learning  purposes.  - It implements the mutex logic follwing the Solidity official  documentation example (via modifier, below):    - https://solidity.readthedocs.io/en/v0.6.0/contracts.html?highlight=constructor#function-modifiers  - It implements some Consensys' best practices (link below):    - https://consensys.github.io/smart-contract-best-practices/recommendations    - Contract layout (type declarations, state variables, events, and    functions).    - Mark untrusted contracts. NA.    - Function arguments with leading underscore.    - Log names starting with `Log`.    - Don't use `transfer()` or `send()`.    - Handle errors in external calls.    - Use modifiers only for checks.    - Improved `fallback()` (e.g. simple, log an event, and check data    length). NA.    - Use events to monitor contract activity.    - Lock pragmas to specific compiler version. NA.  - Added the optional message in `require()`.  NB: Ideally it could inherit from openzeppelin token `TokenTimelock`  contract, but it this beyond the exercise of fixing the reentrancy attack.",
    "methods": {
      "owner()": {
        "details": "Returns the address of the current owner."
      },
      "renounceOwnership()": {
        "details": "Leaves the contract without owner. It will not be possible to call `onlyOwner` functions anymore. Can only be called by the current owner. NOTE: Renouncing ownership will leave the contract without an owner, thereby removing any functionality that is only available to the owner."
      },
      "transferOwnership(address)": {
        "details": "Transfers ownership of the contract to a new account (`newOwner`). Can only be called by the current owner."
      },
      "withdrawFunds(uint256)": {
        "details": "List of exploits, vulnerabilities and bad practices addressed:  - Reentrancy attack: addressed via \"checks-effects-interaction\" pattern  and `noReentrancyMutex` modifier.  - Transferring ether via `call()`: `call()` is kept but it is addressed  via \"checks-effects-interaction\" pattern, and the `noReentrancyMutex`  modifier.",
        "params": {
          "_weiToWithdraw": "the requested ether amount."
        }
      }
    },
    "title": "Mastering Ethereum Chapter 9, EtherStore fixed contract."
  },
  "userdoc": {
    "methods": {
      "withdrawFunds(uint256)": {
        "notice": "Give out ether to anyone that previously deposited funds via `depositFunds`, and does not withdrawn funds (via this function) at least for a week."
      }
    },
    "notice": "EtherStoreFixed contract prevents reentrancy attacks."
  }
}